:020000040800F2
:10000000C007002051170008F50B0008F70B000887
:10001000FB0B0008FF0B0008030C000800000000A9
:10002000000000000000000000000000070C0008B5
:10003000090C0008000000000B0C00080D0C000863
:100040006B1700086B1700086B1700086B17000888
:100050006B1700086B1700086B1700086B17000878
:100060006B1700086B1700086B1700086B17000868
:100070006B1700086B1700086B1700086B17000858
:10008000BB1500086B1700086B1700086B170008FA
:100090006B1700086B1700086B1700086B17000838
:1000A0006B1700086B1700086B1700086B17000828
:1000B00065070008690400086B1700086B17000843
:1000C0006B1700086B1700086B1700086B17000808
:1000D0006B1700086B100008AF1600083F120008ED
:1000E0006B1700086B1700086B1700086B170008E8
:1000F0006B1700086B1700086B1700086B170008D8
:100100006B1700086B1700086B1700086B170008C7
:100110006B1700086B1700086B1700086B170008B7
:100120006B1700086B1700086B1700086B170008A7
:100130006B1700086B1700086B1700086B17000897
:100140006B1700086B1700086B1700086B17000887
:100150006B1700086B1700086B1700086B17000877
:100160006B1700086B1700086B1700086B17000867
:100170006B1700086B1700086B1700086B17000857
:100180006B1700086B17000800F002F800F04CF83D
:100190000AA090E8000C82448344AAF10107DA45E2
:1001A00001D100F041F8AFF2090EBAE80F0013F0E8
:1001B000010F18BFFB1A43F001031847184F000046
:1001C000384F0000103A24BF78C878C1FAD85207D7
:1001D00024BF30C830C144BF04680C6070470000C1
:1001E0000023002400250026103A28BF78C1FBD840
:1001F000520728BF30C148BF0B607047662904F022
:100200001C87642903F03282002070471FB504F078
:100210000FFF03F06BFD04000020002104F0C4FA7E
:10022000E0601FBD10B510BD03F078FE1146FFF76A
:10023000EDFF00F009F803F096FE03B4FFF7F2FFBC
:1002400003BC00F06FFE00004FF4A06001F0A0FAC4
:10025000A82000F0E5FD4FF4E13000F071FE4FF40E
:10026000E13001F026F94FF4E13000F095FF09216B
:1002700044F29F1000F00EF800F086F800F042FA09
:100280003320034908702220487000BFFEE70000B9
:10029000D400002030B58BB004460D46012108463D
:1002A00002F0E0FE01211C2002F082FE0122092161
:1002B000FC4801F0EEFB01220B21FA4801F0E9FBBA
:1002C0004FF42060099002208DF8280003208DF85B
:1002D000290000208DF82A0001208DF82B0009A9A3
:1002E000F04801F04BFB4FF40060099001208DF8BD
:1002F000280009A9EC4801F041FB0420099009A954
:10030000EA4801F03BFBA8B2ADF818000020ADF8B8
:100310001A000794ADF8200006A9E54801F0C9FECF
:100320006020ADF804000120ADF806000420ADF80F
:10033000080000200390ADF810000820ADF812006E
:100340004001ADF814000020ADF8160001A9D8480E
:1003500001F044FF01A9D64801F079FF0821D448F3
:1003600002F0C9F80821D24802F0CEF80121D048A5
:1003700001F00AFF0121CE4801F024FF0121CC4801
:1003800002F011FB0BB030BD00B589B00121022095
:1003900002F057FE0121084602F00AFE0222062161
:1003A000C44801F076FB02220721C24801F071FB2C
:1003B000C020049002208DF8140003208DF8150051
:1003C00000208DF8160002208DF8170004A9B94806
:1003D00001F0D4FA0022C021B64801F04FFB5320AF
:1003E000ADF804000020ADF806004FF6FF70029053
:1003F0000020ADF80C0001A9AF4801F05AFE002022
:10040000ADF81800ADF81A000120ADF81C0000206E
:10041000ADF81E00ADF8200006A9A74802F020FAAA
:100420000420ADF818000120ADF81C0006A9A24870
:1004300002F016FA012207219F4802F0DBFA01219F
:100440009D4801F0BFFE1D208DF8000002208DF8B0
:10045000010000208DF8020001208DF8030068469D
:1004600001F09BF909B000BD10B50221924802F0DD
:10047000D8FA00287ED091480068002805DA904814
:100480000068401E8E49086004E08D480068401CEA
:100490008B4908608B48007878B987483430006809
:1004A0008949086001208749087083481030008816
:1004B000002081491031088023E18248007801281A
:1004C000FAD17D48343000688049086008460068E9
:1004D0007D490968884207DB7C4800687A490968D9
:1004E000401A7B4908600AE0774800684FF6FF71C0
:1004F000081A764909680844401C75490860744820
:100500000068744991FBF0F0734908606A48103044
:100510000088002068491031088068480068002879
:1005200015DB002010E0C2006B4909681141CAB216
:100530006A4B811C5A54C200614909681141CAB210
:1005400000F10A015A54401C0428ECDB17E000209B
:1005500013E0614909684942C2001141CAB25F4BC8
:10056000811C5A54C200564909681141CAB200F1AF
:100570000A0100E007E05A54401C0428E9DB00208F
:1005800050490870BDE004214B4802F04AFA0028A7
:100590007ED04A480068002805DA51480068401EAD
:1005A0004F49086004E04E480068401C4C49086010
:1005B0004C48007878B94048383000684A490860AB
:1005C0000120484908703C481030008800203A4912
:1005D0001031088095E043480078012860D1364802
:1005E0003830006841490860084600683E4909689B
:1005F000884207DB3D4800683B490968401A3C498E
:1006000008600AE0384800684FF6FF71081A374959
:1006100009680844401C36490860354800682D497F
:1006200091FBF0F033490860234810300088002027
:1006300021491031088021480068002815DB00207E
:1006400010E0C2002B4909681141CAB2234B811D39
:100650005A54C200224909681141CAB200F10E0180
:100660005A54401C0428ECDB17E0002013E0214919
:1006700009684942C2001141CAB2184B811D5A543F
:10068000C200174909681141CAB200F10E0100E029
:1006900032E05A54401C0428E9DB0020114908705C
:1006A0002FE0000000100240000C02400008024051
:1006B00000000140000002400004004080000020D3
:1006C0000C00002000000020280000202C0000204A
:1006D0003C00002040420F0004000020D400002015
:1006E0001000002001000020300000203400002015
:1006F0003800002008000020FE4800880020FD4946
:10070000088010BD1FB50121084602F09AFC42F294
:10071000CF00ADF804000020ADF8060040F2F31061
:1007200002900020ADF80C0001A94FF0804001F0CC
:10073000C0FC01221146900702F05CF901218807F4
:1007400001F040FD1C208DF8000002208DF8010012
:1007500000208DF8020001208DF80300684601F0AA
:100760001CF81FBD00B52DED108B87B0E248006866
:10077000E2490968884205D1E1480078401CE04917
:10078000087002E00020DE490870DE480068DE499B
:100790000968884205D1DD480078401CDB490870B3
:1007A00002E00020D9490870D5480078082802DD09
:1007B0000020D1490860D5480078082802DD0020D3
:1007C000D04908600121880702F02BF900287CD06D
:1007D000CF480068002879DBCE48006804F029FA89
:1007E00041EC1E0BCC4890ED000B53EC102B51EC60
:1007F0001E0B04F033FB41EC1D0BC84890ED000BC1
:1008000053EC102B51EC1D0B04F02AFA41EC1B0B9E
:10081000B9490968BB4A1268881804F00AFA41EC21
:100820001F0B9FEDBF0B53EC102B04F07BF841EC3A
:100830001E0BB748006804F0FCF953EC1E2BCDE901
:1008400004019DED040B51EC100B04F007FB41EC8F
:100850001D0BB54890ED000B53EC102B51EC1D0B0C
:1008600004F0FEF941EC1C0B53EC1B2B04F0F6FAE0
:1008700041EC190BAD48006804F0DBF941EC1A0BB0
:1008800053EC192B03F0A6FF41EC180B04F0A2F96E
:10089000A64908609F48006804F0CBF941EC1E0BA4
:1008A0009D4890ED000B53EC102B51EC1E0B04F007
:1008B000D5FA41EC1D0B994890ED000B53EC102B31
:1008C00051EC1D0B04F0CCF901E063E144E041EC94
:1008D0001B0B894909688B4A1268881804F0A9F92A
:1008E0009FED8F0B53EC102BCDE904019DED040B14
:1008F00051EC100B04F016F841EC1E0B8448006814
:1009000004F097F941EC1F0B53EC1E2B04F0A6FAF0
:1009100041EC1D0B844890ED000B53EC102B51EC77
:100920001D0B04F09DF941EC1C0B53EC1B2B03F049
:1009300051FF41EC190B7E48006804F07AF941EC54
:100940001A0B53EC192B03F045FF41EC180B04F084
:1009500041F977490860BDE06E48006804F069F924
:1009600041EC1E0B6C4890ED000B53EC102B51EC3E
:100970001E0B04F073FA41EC1D0B684890ED000B60
:1009800053EC102B51EC1D0B04F06AF941EC1B0BDE
:10099000594909685B4A1268881804F04AF941EC21
:1009A0001F0B9FED5F0B53EC102B03F0BBFF41ECD3
:1009B0001E0B57480068404204F03BF953EC1E2BD5
:1009C000CDE904019DED040B51EC100B04F046FA47
:1009D00041EC1D0B544890ED000B53EC102B51ECE7
:1009E0001D0B04F03DF941EC1C0B53EC1B2B03F0E9
:1009F000F1FE41EC190B4D48006804F01AF941EC86
:100A00001A0B53EC192B03F0E5FE41EC180B04F024
:100A1000E1F8464908603F48006804F00AF941ECF3
:100A20001D0B3D4890ED000B53EC102B51EC1D0BB2
:100A300004F014FA41EC1C0B384890ED000B53EC19
:100A4000102B51EC1C0B04F00BF941EC1A0B2A494A
:100A500009682C4A1268881804F0EBF841EC1F0B67
:100A60009FED2F0B53EC102B03F05CFF41EC1D0BA3
:100A700027480068404204F0DCF841EC1E0B53ECC0
:100A80001D2B04F0EBF941EC1C0B274890ED000BFB
:100A900053EC102B51EC1C0B04F0E2F841EC1B0B57
:100AA00053EC1A2B04F0DAF941EC180B20480068DB
:100AB00004F0BFF841EC190B53EC182B03F08AFE3D
:100AC000CDE904019DED040B51EC100B04F082F80C
:100AD0001749086015480068002802DA0020134909
:100AE000086013480068002802DA002010490860F6
:100AF0000E481FE010040040040000201C000020ED
:100B000024000020080000202000002025000020F4
:100B1000800000208800002060000020A00000204D
:100B200000000000000000409000002014000020A1
:100B300018000020006800F561711C4801F0A7FC56
:100B40001B48006800F56171184801F0A2FC1948C3
:100B50000078B8B91648006817490968174A12683A
:100B6000174B1B68CDE90232CDE90410154890ED12
:100B7000000B8DED000B144802681448016814A0A6
:100B800002F040FD0E480068184908600B480068F4
:100B9000174908604FF08040008A00204FF08041E4
:100BA000088207B0BDEC108B00BD000000000140C2
:100BB00018000020C00000201400002008000020C1
:100BC0000400002060000020880000208000002039
:100BD00025642025642025322E32662025642025B8
:100BE000642025642025640D0A0000001C000020FC
:100BF00020000020704700BFFEE700BFFEE700BFF7
:100C0000FEE700BFFEE7704770477047704700007F
:100C10000CB50020019000907648006840F48030C8
:100C20007449086000BF7348006800F40030009009
:100C30000198401C0190009818B90198B0F5A04F98
:100C4000F1D16C48006800F4003010B10120009030
:100C500001E0002000900098012846D1654840300E
:100C6000006840F080506349403108606248006885
:100C700040F44040604908605E48083000685D49C3
:100C8000083108600846006840F4004008600846E3
:100C9000006840F4A05008605848091F0860081F09
:100CA000006840F08070091F086000BF514800686C
:100CB00000F000700028F9D040F20570504908603B
:100CC0004C480830006820F003004A4908310860A9
:100CD0000846006840F00200086000BF4548083040
:100CE000006800F00C000828F8D10CBD10B545488C
:100CF000006840F47000434908603E48006840F0D6
:100D000001003C49086000203A4908310860394830
:100D100000683D490840374908603C48091D0860A3
:100D2000081F006820F48020091F08600020314956
:100D30000C310860FFF76CFF4FF0006031498039DB
:100D4000086010BD70B5002000220223002402219B
:100D5000284D08352D6805F00C0020B1042806D078
:100D6000082834D107E02A4D2A4E356033E02A4D59
:100D7000284E35602FE01F4D2D1D2D68C5F3805482
:100D80001C4D2D1D2D6805F03F0154B1224DB5FBC2
:100D9000F1F5184E361D3668C6F3881605FB06F2C7
:100DA00009E01B4DB5FBF1F5124E361D3668C6F352
:100DB000881605FB06F20F4D2D1D2D68C5F3014564
:100DC0006D1C6B00B2FBF3F5124E356003E0104D65
:100DD000104E356000BF00BF064D08352D68C5F3C5
:100DE00003150E4E705D0B4D2D68C540094E3560E4
:100DF00070BD0000003802400070004008544007F9
:100E0000003C024088ED00E0FFFFF6FE10300024B9
:100E10000024F4004000002000127A00440000206A
:100E200010B504466FF0040000F004FDE11704EB78
:100E30005171C1F3C701394A11701046007800EBB7
:100E40004001C1EBC0104FF6FF7101EAC000344908
:100E5000088010BD0146314A12784A434FF0E02322
:100E60005A6100229A611A46126942F001021A611F
:100E700000BF4FF0E022106900F001021AB100F447
:100E80008032002AF5D04FF0E022126922F00102F0
:100E90004FF0E0231A6100229A6170470146204A10
:100EA00012884A434FF0E0235A6100229A611A46A1
:100EB000126942F001021A6100BF4FF0E02210698E
:100EC00000F001021AB100F48032002AF5D04FF090
:100ED000E022126922F001024FF0E0231A610022A1
:100EE0009A61704770B504464FF4077094FBF0F0B8
:100EF000C6B24FF4077094FBF0F100FB114085B2CD
:100F000005E04FF40770FFF7C9FF701EC6B2002E50
:100F1000F7D115B12846FFF7C1FF70BD540000207E
:100F20005600002000BF704700BFFB4A128802F045
:100F30004002002AF9D0C2B2F74B1B1D1A8070473D
:100F400010B596B004460121F44802F031F80121B1
:100F5000102002F087F807220921F14800F099FDDE
:100F600007220A21EE4800F094FD4FF4C06014906F
:100F700002208DF854008DF8550000208DF85600A1
:100F800001208DF8570014A9E54800F0F7FC1094F3
:100F90000020ADF84400ADF84600ADF84800ADF8CB
:100FA0004C000C20ADF84A0010A9DE4800F011FEFC
:100FB000012240F22441DB4800F049FF25208DF852
:100FC0003C0002208DF83D0000208DF83E000120FD
:100FD0008DF83F000FA800F0E0FBD34802F03CF989
:100FE00000BFD14802F061FA0028FAD12120049014
:100FF000C0060090002003900B9003200C90CB487B
:10100000029000200D9008904FF4806006908010B0
:101010000990C448001D019000200E900790059093
:101020004FF440300A906946BF4802F0B7F90122F8
:101030000421BD4802F079FA40F22661B94800F077
:1010400038FF4FF6FF70B8497C3908600121B64877
:1010500002F0DEF901224021B24800F0EFFE01214A
:10106000B04800F03EFE16B010BD10B540F224416D
:10107000AC4800F027FF002870D00021AA4802F0F9
:10108000C7F9A8480088AA490860A648808808606F
:10109000A54802F0E0F9A749087008460078C0F1B9
:1010A0002100092842D100243EE0A04800780A2807
:1010B00039D19E48407800069C49897840EA014031
:1010C0009A49C97840EA01209849097908439A4920
:1010D00008609648407900069449897940EA0140C1
:1010E0009249C97940EA01209049097A0843934915
:1010F00008609148006800280BDB00224FF4006173
:101100008F4800F0BBFC012204218E4800F0B6FCA1
:1011100009E00122D1028A4800F0B0FC002204213B
:10112000884800F0ABFC641C092CBEDB81480078C9
:10113000C0F12100022821D17C480078432801D148
:10114000012000E0002079494978442901D101219A
:1011500000E00021084088B100200DE016E000BF4B
:101160007049098801F040010029F9D07649095CED
:101170006C4A9180411CC8B23328F0DB21206A49B7
:10118000091D08600121684802F042F940F224413B
:10119000644800F0D2FE10BD10B588B004460121AD
:1011A000880401F04EFF0121022001F001FF072217
:1011B0000A21664800F06DFC07220B21634800F00D
:1011C00068FC4FF44060069002208DF81C008DF8FA
:1011D0001D0000208DF81E0001208DF81F0006A9BB
:1011E0005A4800F0CBFB02940020ADF80C00ADF89B
:1011F0000E00ADF81000ADF814000C20ADF8120090
:1012000002A9454800F0E5FC0121434800F069FDD2
:10121000012240F22551404800F019FE27208DF8A8
:10122000040002208DF8050000208DF80600012042
:101230008DF8070001A800F0B0FA08B010BD1FB586
:1012400040F22551344800F03DFE002863D032487A
:10125000001D0088C4B2012C0DD19FED3D0B53EC55
:10126000102B3D4890ED000B51EC100B03F0B2FA3F
:10127000394A03C205E1022C0DD19FED350B53EC29
:10128000102B354890ED000B51EC100B03F0E6FDF0
:10129000314A03C2F5E0032C0DD19FED300B53EC26
:1012A000102B304890ED000B51EC100B03F092FA2C
:1012B0002C4A03C2E5E0042C0DD19FED280B53EC22
:1012C000102B284890ED000B51EC100B03F0C6FDDD
:1012D000244A03C2D5E0052C0DD19FED1D0B53EC24
:1012E000102B214890ED000B51EC100B03F072FA1B
:1012F0001D4A03C2C5E0062C38D19FED150B53ECF7
:10130000102B194890ED000B51EC100B03F0A6FDCB
:10131000154A03C2B5E0C8E00048004001004000A3
:1013200000000240001001408864024007010020D4
:101330007C0000206B00002080000020880000203E
:10134000000C024000080240D400002000040240CB
:101350009A9999999999B93F900000207B14AE47CA
:10136000E17A843F98000020A0000020072C0DD1D6
:101370001FED060B53EC102BD64890ED000B51ECF3
:10138000100B03F027FAD34A03C27AE0082C0DD1E0
:101390001FED0E0B53EC102BCE4890ED000B51ECD3
:1013A000100B03F05BFDCB4A03C26AE0092C0DD1A0
:1013B0001FED190B53EC102BC74890ED000B51ECAF
:1013C000100B03F007FAC44A03C25AE00A2C0DD1ED
:1013D0001FED210B53EC102BBF4890ED000B51EC8F
:1013E000100B03F03BFDBC4A03C24AE00B2C0DD1AD
:1013F0001FED260B53EC102BB84890ED000B51EC71
:10140000100B03F0E7F9B54A03C23AE00C2C0DD1FA
:101410001FED2E0B53EC102BB04890ED000B51EC50
:10142000100B03F01BFDAD4A03C22AE00D2C05D1C1
:10143000AB4800683230AA49086022E00E2C05D182
:10144000A74800683238A64908601AE00F2C05D179
:10145000A4480068401DA349086012E0102C05D183
:10146000A0480068401F9F4908600AE0112C03D182
:1014700001209D49087004E0122C02D100209A49F5
:1014800008709848006896490968CDE902109748A5
:1014900090ED000B8DED000B954890ED000B53EC9B
:1014A000102B94A002F0AEF800BF002099490880EC
:1014B0001FBD10B596B004460121974801F078FD94
:1014C0000121480401F0BDFD07220221934800F0EC
:1014D000E0FA07220321914800F0DBFA0C20149077
:1014E00002208DF854008DF8550000208DF856002C
:1014F00001208DF8570014A9884800F03FFA109495
:101500000020ADF84400ADF84600ADF84800ADF855
:101510004C000C20ADF84A0010A9814800F059FB9E
:10152000804801F099FE00BF7E4801F0BEFF002810
:10153000FAD121200490C0060090002003900B9067
:1015400003200C907848029000200D9008904FF4F2
:1015500080600690801009907148001D0190002065
:101560000E90079005904FF480300A9069466D48C0
:1015700001F014FF10208DF83C0002208DF83D0092
:1015800000208DF83E0001208DF83F000FA800F0EC
:1015900004F901221021634801F0C7FF01216148CD
:1015A00001F036FF012240215D4800F047FC012197
:1015B0005B4800F096FB16B010BD70B52DED068BA4
:1015C0005A49584801F0CEFF002868D00024002571
:1015D000002600200BE05449095C552906D1524AE7
:1015E000411C515C512901D1C4B202E0401C2128A8
:1015F000F1DB00BF204607E04B490A5C00F1120115
:10160000091B4B4B5A54401C2128F5DB002007E0F6
:101610004549095CC4F133020244454B9954401CCE
:10162000A042F5DB04F11100202802DD2138C5B20B
:1016300002E004F11100C5B204F11200202802DD1D
:101640002138C6B202E004F11200C6B23649495D43
:10165000354A925D41EA022108B203F0EAFA41EC10
:101660001A0B9FED340B53EC102B03F05BF941EC9C
:10167000190B9FED320B53EC102B03F0F1FA41ECF8
:10168000180B9FED300B53EC102B03F0E9FA2F4AA7
:1016900003C24FF6FF7023498839C86000BF4FF678
:1016A000FF7020498839C860BDEC068B70BD10B54D
:1016B00040F225511A4800F005FC38B1184800F0F6
:1016C0003FFB04462146134800F036FB0020144936
:1016D000088010BDA8000020B0000020B800002045
:1016E0008000002088000020C0000020A000002012
:1016F000900000206B70313A252E3166206B7032DD
:101700003A252E316620763A20256420613A2564F8
:10171000200D0A00004800400100200000000240A7
:10172000004400408860024033010020008800200F
:10173000D4000020000000000000E0400000000095
:1017400000409F4000000000000024406000002096
:101750000948804709480047FEE7FEE7FEE7FEE745
:10176000FEE7FEE7FEE7FEE7FEE7FEE70448054981
:10177000054A064B70470000ED0C0008890100087F
:10178000C0010020C0070020C0030020C0030020CB
:1017900032490143324A1160704770B5002100237D
:1017A0000F22C4781CB32E4C246804F4E064C4F502
:1017B000E064C4F30721C1F10404E3B20A414478B0
:1017C0009C40E1B28478144021430C07210E254C43
:1017D00005786155047804F01F050124AC400578B4
:1017E0006D11AD0005F1E025C5F8004109E0047870
:1017F00004F01F050124AC401B4D0678761145F816
:10180000264070BD194A0A400243154B1B1F1A603F
:10181000704739B1124A121D12680243104B1B1D4A
:101820001A6006E00E4A121D126882430C4B1B1D03
:101830001A607047042808D14FF0E021096941F08F
:1018400004014FF0E022116107E04FF0E021096947
:1018500021F004014FF0E022116170470000FA0509
:101860000CED00E000E400E080E100E080FFFF1FFD
:1018700010B504469848844208D10121084601F079
:1018800002FC0021012001F0FEFB76E09348844237
:1018900008D10121022001F0F6FB0021022001F015
:1018A000F2FB6AE08E48844208D10121042001F055
:1018B000EAFB0021042001F0E6FB5EE08948844257
:1018C00008D10121082001F0DEFB0021082001F0F1
:1018D000DAFB52E08448844208D10121102001F053
:1018E000D2FB0021102001F0CEFB46E07F4884426D
:1018F00008D10121202001F0C6FB0021202001F0A9
:10190000C2FB3AE07A48844208D10121402001F02C
:10191000BAFB0021402001F0B6FB2EE0754884425E
:1019200008D10121802001F0AEFB0021802001F0D0
:10193000AAFB22E07048844208D10121801501F001
:10194000A2FB0021A01501F09EFB16E06B4884422B
:1019500008D10121401501F096FB0021601501F02E
:1019600092FB0AE06648844207D10121001501F08C
:101970008AFB0021201501F086FB10BDF0B50A4658
:1019800000210023002400BF3DE0012505FA01F3FA
:10199000156805EA03049C4234D105684F0003260C
:1019A000BE40B543056015794E00B5400668354325
:1019B00005601579012D02D01579022D16D18568A3
:1019C0004F000326BE40B543856055794E00B540B3
:1019D000866835438560456801268E40B54345607D
:1019E000456896798E40B6B235434560C5684F006C
:1019F0000326BE40B543C560D5794E00B540C668E4
:101A00003543C560491C1029BFD3F0BD4FF6FF71A7
:101A100001600021017141718171C171704708B588
:101A20004FF480320092009A0A430092009AC261F9
:101A3000C161009AC261C2690092C269009208BD88
:101A40000246002013690B400BB1012000E000208A
:101A500070470146086980B270470246002053690A
:101A60000B400BB1012000E000207047014648699F
:101A700080B2704701837047418370470AB1018388
:101A800000E0418370474161704742694A404261CA
:101A90007047F0B5002300244D07ED0E02FA05F360
:101AA000CE1000F1200555F826504E07F70E0F26F0
:101AB000BE40B543CF1000F1200646F82750CE10A7
:101AC00000F1200555F8265045EA0304CE1000F138
:101AD000200545F82640F0BD000002400004024009
:101AE00000080240000C02400010024000140240B6
:101AF00000180240001C0240002002400024024066
:101B00000028024010B50446FA48844208D1012159
:101B1000102001F0FCFA0021102001F0F8FA57E043
:101B2000F548844209D10121480401F0DFFA00217F
:101B30004FF4003001F0DAFA4AE0F048844209D16B
:101B40000121880401F0D2FA00214FF4802001F035
:101B5000CDFA3DE0EA48844209D10121C80401F0F0
:101B6000C5FA00214FF4002001F0C0FA30E0E5484A
:101B7000844209D10121080501F0B8FA00214FF48F
:101B8000801001F0B3FA23E0DF48844208D101213C
:101B9000202001F0BCFA0021202001F0B8FA17E063
:101BA000DA48844209D10121880701F09FFA002117
:101BB0004FF0804001F09AFA0AE0D548844207D1FC
:101BC0000121400501F092FA0021600501F08EFA32
:101BD00010BD2DE9FF4705460E460024A14600BF73
:101BE000A046B08900B100BF2C8A24F44054F0888C
:101BF00004432C82AC8941F20C608443B088318963
:101C00000843718908430443AC81AC8A24F44074CE
:101C1000B0890443AC82684601F0F9F8B5488542C2
:101C200002D0B948854202D1DDF80C9001E0DDF820
:101C30000890A88900F4004040B109EBC90000EB0E
:101C4000091031684900B0FBF1F707E009EBC90062
:101C500000EB091031688900B0FBF1F76420B7FB95
:101C6000F0F004012009642101FB1078A88900F438
:101C7000004040B1322000EBC800B0FBF1F000F0B2
:101C80000700044308E0322000EB08106421B0FB99
:101C9000F1F000F00F0004432C81BDE8FF874FF402
:101CA0001651016000218180C18001810C21418198
:101CB00000218181704710B502460020108A20F46F
:101CC00070600B884C8823438C882343CC88234343
:101CD0001843108210BD0021018041808180C180A5
:101CE000704721B1828942F40052828104E08289E6
:101CF0004DF6FF731A4082817047028B02F47F42D7
:101D00000283028B0A430283704721B1828942F425
:101D10000042828103E08289C2F30E028281704711
:101D200021B1828A42F40062828204E0828A4FF208
:101D3000FF731A4082827047C1F3080282807047A5
:101D400001468888C0F308007047028A4FF6F07396
:101D50001A400282028A0A430282704721B18289B4
:101D600042F00202828104E082894FF6FD731A403C
:101D70008281704782894FF2FF731A408281828983
:101D80000A4382817047028A4FF6DF731A4002824B
:101D9000028A0A430282704721B1028A42F48042D9
:101DA000028204E0028A4BF6FF731A4002827047F7
:101DB000818941F001018181704721B1828A42F01D
:101DC0000802828204E0828A4FF6F7731A40828208
:101DD0007047028BD2B20283028B42EA0122028355
:101DE000704721B1828A42F02002828204E0828A16
:101DF0004FF6DF731A408282704721B1828A42F027
:101E00001002828204E0828A4FF6EF731A408282C7
:101E10007047828A4FF6FB731A408282828A0A4395
:101E20008282704721B1828A42F00202828204E0FB
:101E3000828A4FF6FD731A40828270471AB1838AF4
:101E40000B43838202E0838A8B4383827047F0B521
:101E50000346002400260025002040F66A17B942F8
:101E600000D100BF1846C1F3421401F01F0601273C
:101E700007FA06F5012C01D10C3004E0022C01D147
:101E8000103000E014301AB107682F43076002E0F9
:101E90000768AF430760F0BD02460020B1F5007F40
:101EA00000D100BF13880B400BB1012000E00020DF
:101EB000704701F40072B2F5007F00D100BFCA4341
:101EC0000280704770B502460024002300250020E0
:101ED00040F66A16B14200D100BFC1F3421501F0CD
:101EE0001F03012606FA03F3012D13D1968933400F
:101EF00017E000000010014000440040004800408E
:101F0000004C0040005000400014014000780040A8
:101F1000007C0040022D02D1168A334001E0968AEF
:101F200033400C12012606FA04F41688344013B12B
:101F30000CB1012000E0002070BD10B5002200238C
:101F400040F66A14A14200D100BF0A120124944055
:101F5000A3B2DC43048010BD10B50446FE488442A1
:101F600008D10121084601F0D2F80021012001F03A
:101F7000CEF89DE0B4F1804F08D10121084601F070
:101F8000B5F80021012001F0B1F891E0F348844256
:101F900008D10121022001F0A9F80021022001F05E
:101FA000A5F885E0EE48844208D10121042001F023
:101FB0009DF80021042001F099F879E0E948844275
:101FC00008D10121082001F091F80021082001F03A
:101FD0008DF86DE0E448844208D10121102001F021
:101FE00085F80021102001F081F861E0DF4884428B
:101FF00008D10121202001F079F80021202001F0F2
:1020000075F855E0DA48844208D10121022001F038
:102010007EF80021022001F07AF849E0D548844298
:1020200009D10121080401F072F800214FF4803039
:1020300001F06DF83CE0D048844209D10121480408
:1020400001F065F800214FF4003001F060F82FE056
:10205000CA48844209D10121880401F058F80021BE
:102060004FF4802001F053F822E0C548844208D1A3
:102070000121402001F03AF80021402001F036F81B
:1020800016E0C048844208D10121802001F02EF8DA
:102090000021802001F02AF80AE0BB48844207D1E1
:1020A0000121801501F022F80021A01501F01EF891
:1020B00010BD00220288A84B98420ED0AC4B98422B
:1020C0000BD0B0F1804F08D0A44B984205D0A44B60
:1020D000984202D0A34B984204D14FF68F731A4016
:1020E0004B881A43A04B984207D0A04B984204D08B
:1020F0004FF6FF431A400B891A4302804B68C362B4
:102100000B880385944B984202D0994B984201D199
:102110008B7A03860123838270474FF0FF31416041
:102120000021018001814180817270470185828296
:1021300070470A46002101884FF68F7319401143FA
:102140000180704741627047C16270470146486A2A
:1021500070470146088D704721B1028842F00202A3
:10216000028004E002884FF6FD731A400280704737
:1021700021B1028842F00402028004E002884FF696
:10218000FB731A400280704721B1028842F080023E
:10219000028004E002884FF67F731A400280704785
:1021A00002884FF6F7731A40028002880A430280C1
:1021B000704702884FF6FF431A40028002880A43A4
:1021C0000280704721B1028842F00102028004E0DF
:1021D00002884FF6FE731A400280704770B50024E3
:1021E00000220023058C4FF6FE7635400584028CD4
:1021F0008388048B4FF68F752C40B51E2C400D88BC
:102200002C43751E2A408D892A434D882A43524DFE
:10221000A84202D0564DA84213D14FF6F7752A4076
:10222000CD892A434FF6FB752A408D882A434FF605
:10223000FF652B404FF6FF552B400D8A2B434D8AEF
:102240002B43838004838D684563028470BD70B521
:10225000002400220023058C4FF6EF7635400584DC
:10226000028C8388048B48F6FF752C404FF6FF459F
:102270002C400D884FF6FF7606EA05252C434FF6D5
:10228000DF752A408D8906EA05152A434D8806EA3E
:1022900005152A43304DA84202D0354DA8421DD124
:1022A0004FF67F752A40CD894FF6FF7606EA051571
:1022B0002A434FF6BF752A408D8806EA05152A4342
:1022C0004FF6FF352B404FF2FF752B400D8A06EA83
:1022D00085052B434D8A06EA85052B4383800483BD
:1022E0008D688563028470BD70B5002400220023D0
:1022F000058C4FF6FF6635400584028C8388848BFD
:102300004FF68F752C404FF6FC752C400D882C43F2
:102310004FF6FF552A408D894FF6FF7606EA0525D0
:102320002A434D8806EA05252A430B4DA84202D0D0
:102330000F4DA84238D14FF2FF752A40CD894FF694
:10234000FF7606EA05252A434FF6FF352A408D8899
:1023500006EA05252A4319E0000001400004004078
:1023600000080040000C0040001000400014004035
:102370000004014000400140004401400048014089
:1023800000180040001C0040002000404EF6FF7581
:102390002B404DF6FF752B400D8A06EA05152B43A1
:1023A0004D8A06EA05152B43838084838D68C563B7
:1023B000028470BD70B5002200230024058C4EF607
:1023C000FF7635400584038C8488828B48F6FF7540
:1023D0002A404FF6FF452A400D884FF6FF7606EA61
:1023E00005252A434DF6FF752B408D8906EA0535F4
:1023F0002B434D8806EA05352B43FE4DA84202D0FB
:10240000FD4DA84208D14BF6FF752C400D8A4FF6C2
:10241000FF7606EA85152C43848082838D680564E7
:10242000038470BD002101804180818081608181B1
:10243000C18101824182704770B5034600200024AB
:102440001846183001258D40ACB21D8CA5431D8463
:1024500009B108290AD100EB610005684FF68F76B3
:10246000354005600568154305600FE00D1FC5F395
:102470004E052844056848F6FF7635400560056836
:102480004FF6FF7606EA02263543056070BD4163CC
:10249000704781637047C1637047016470470A46A3
:1024A0000021018B4FF68F73194011430183704750
:1024B0000A460021018B48F6FF7319404FF6FF735F
:1024C00003EA02231943018370470A460021818BE6
:1024D0004FF68F7319401143818370470A460021DC
:1024E000818B48F6FF7319404FF6FF7303EA02230E
:1024F0001943818370470A460021018B4FF6F77319
:1025000019401143018370470A460021018B4FF2A5
:10251000FF7319404FF6FF7303EA02231943018347
:1025200070470A460021818B4FF6F773194011431B
:10253000818370470A460021818B4FF2FF73194057
:102540004FF6FF7303EA02231943818370470A465B
:102550000021018B4FF6FB73194011430183704733
:102560000A460021018B4FF6FF3319404FF6FF73E7
:1025700003EA02231943018370470A460021818B35
:102580004FF6FB7319401143818370470A460021BF
:10259000818B4FF6FF3319404FF6FF7303EA022396
:1025A0001943818370470A460021018B4FF67F73E0
:1025B00019401143018370470A460021018BC1F382
:1025C0000E014FF6FF7303EA02231943018370479C
:1025D0000A460021818B4FF67F7319401143818396
:1025E00070470A460021818BC1F30E014FF6FF733D
:1025F00003EA02231943818370470A460021018CB4
:102600004FF6FD7319401143018470470A460021BB
:10261000018C4FF6F77319401143018470470A4645
:102620000021018C4FF6DF7319404FF6FF7303EA68
:1026300002131943018470470A460021018C4FF6AA
:102640007F7319404FF6FF7303EA021319430184A5
:1026500070470A460021018C4FF6FF5319404FF690
:10266000FF7303EA02231943018470470A460021DD
:10267000018C4FF2FF7319404FF6FF7303EA0223F8
:102680001943018470470A460021018C4DF6FF73FF
:1026900019404FF6FF7303EA023319430184704770
:1026A00030B5002301248C40A3B2048C9C430484E5
:1026B000048C02FA01F5ADB22C43048430BD30B570
:1026C000002304248C40A3B2048C9C430484048C17
:1026D00002FA01F5ADB22C43048430BD828B4FF277
:1026E000FF331A408283828B4FF6FF7303EA012384
:1026F0001A4382837047F0B50C461546002100222C
:102700000026078C4EF6FF7C07EA0C070784818BB6
:10271000028C4FF6FF7707EA043640F6FF47394050
:102720004FF6FF7707EA052739434FF6FF7707EAA9
:102730000337394345F6FF773A4046F480573A432A
:1027400081830284F0BD828B4FF6F3731A4082833B
:10275000828B0A4382837047F0B50C4615460021F0
:1027600000220026078C4FF6FF6C07EA0C0707844F
:10277000818B028C4FF6FF7707EA04264FF60C7721
:1027800039404FF6FF7707EA03172F4339434FF2DB
:10279000FF573A4046F480773A4381830284F0BD84
:1027A000028B4FF2FF331A400283028B4FF6FF7306
:1027B00003EA01231A4302837047F0B50C4615461D
:1027C000002100220026078C4FF6EF7C07EA0C0759
:1027D0000784018B028C4FF6FF7707EA041640F658
:1027E000FF4739404FF6FF7707EA033739434FF683
:1027F000FF7703E0000001400004014007EA0527DD
:1028000039434FF65F773A4046F010073A43018369
:102810000284F0BD028B4FF6F3731A400283028BE1
:102820000A4302837047F0B50C461546002100228A
:10283000068C4FF6FE773E400684018B028C4FF6E5
:102840000C7631407E1C06EA03162E4331434FF6C8
:10285000F576324044F00106324301830284F0BD34
:1028600070B505460C46208850B92389A288618836
:102870002846FFF7D8FFE1882846FFF7CBFF25E081
:10288000208804280AD12389A28861882846FFF776
:1028900094FFE1882846FFF783FF17E02088082887
:1028A0000AD12389A28861882846FFF755FFE1886D
:1028B0002846FFF748FF09E02389A2886188284657
:1028C000FFF719FFE1882846FFF708FF70BD0021D8
:1028D00001804180012181800021C18001817047F8
:1028E0002DE9F04105460C4600260127608808B90D
:1028F000022600E00026A088012801D1022700E07E
:1029000001272088A0B92389A28861882846FFF77B
:102910008AFFE1882846FFF77DFF23893A46314642
:102920002846FFF74AFFE1882846FFF739FF13E002
:102930002389A28861882846FFF73FFFE18828465F
:10294000FFF72EFF23893A4631462846FFF76BFFF3
:10295000E1882846FFF75EFFBDE8F0810146486B3D
:1029600070470146886B70470146C86B7047014647
:10297000086C70470A884B881A438B881A43CB88A7
:102980001A430B891A434B891A438B891A43A0F8BF
:10299000442070470021018041808180C1800181F5
:1029A00041818181704731B1B0F8442042F4004246
:1029B000A0F8442005E0B0F84420C2F30E02A0F8CD
:1029C0004420704721B1828842F00402828004E0F2
:1029D00082884FF6FB731A408280704721B182884B
:1029E00042F00102828004E082884FF6FE731A40B2
:1029F000828070471AB183890B43838102E0838907
:102A00008B43838170478182704702460020138A7E
:102A10000B400BB1012000E000207047CA43028246
:102A2000704730B50246002000230024158A05EACD
:102A30000103958905EA010413B10CB1012000E0FE
:102A4000002030BDCA430282704741EA0203A0F869
:102A5000483070471AB183890B43838102E0838930
:102A60008B438381704721B1828842F008028280C3
:102A700004E082884FF6F7731A408280704701891C
:102A80004FF6F8721140018170470A460021018912
:102A90004FF68F73194011430181704730B50446DA
:102AA0000D4629462046FFF7F0FF208940F0070039
:102AB000208130BD2DE9F04104460D4616461F46E3
:102AC000602D06D13B46012231462046FFF775FEB8
:102AD00005E03B46012231462046FFF7A4FE294689
:102AE0002046FFF7D2FF208940F007002081BDE893
:102AF000F08130B50C4600210189C9B24FF6FF754F
:102B000005EA0325154325432943018130BD2DE9FD
:102B1000F04105460E4617469846002443463A467D
:102B200031462846FFF7E5FF2C894FF6F870044040
:102B300044F007044FF68F70044044F070042C8179
:102B4000BDE8F081F0B504460D4616461F463B46EB
:102B5000324629462046FFF7CCFF208940F48040CA
:102B60002081F0BD82884FF68F731A408280828860
:102B70000A438280704702894FF6F8731A40028137
:102B800002890A430281704702894FF67F731A4017
:102B9000028102890A4302817047F0B50C4615464E
:102BA0001E460021002200230189028B038C4FF670
:102BB000F877394021434FF6FC473A4040F201177D
:102BC0003A434FF6DD773B404FF6FF7707EA0617AB
:102BD0002F433B43018102830384F0BD21B18288EE
:102BE00042F08002828004E082884FF67F731A40B0
:102BF00082807047A0F8501070470000F9480068C4
:102C000040F00100F74908600020F64908310860EB
:102C1000F4480068F4490840F2490860F348091D87
:102C20000860F348EF4984310860F0481038091D06
:102C30000860EC48006820F48020EA490860002021
:102C4000E8490C310860E7498C3108607047002181
:102C5000E44A921C117011460870704710B5014685
:102C60000022002300204A11012A02D1DD4C2368F2
:102C700008E0022A03D1DB4C7034236802E0D94C0F
:102C80007434236801F01F02012494401C400CB1ED
:102C9000012000E0002010BD38B500200090002485
:102CA000002500BF3120FFF7D9FF05460098401CE2
:102CB00000900098B0F5A04F01D0002DF2D0312047
:102CC000FFF7CCFF08B1012400E00024204638BD06
:102CD00001460020C34A106820F0F80040EAC10015
:102CE00010607047C349086070470021BD4A7032C8
:102CF00011701170012802D004280AD104E00121CA
:102D0000B84A7032117005E00521B64A7032117070
:102D100000E000BF00BF7047B7490860704770B55A
:102D2000049C41EA82150126C6EB530645EA064596
:102D3000054345EA0465AB4E361D356070BDAD49AF
:102D400008667047820142EA0172A64B84331A601A
:102D50007047A8498866704710B5830143EA01634C
:102D600043EA02739F4C8834236010BDA149086771
:102D70007047A049C864704702460020994B083349
:102D8000186820F0EC6042EA01031843954B0833C1
:102D90001860704702460020924B0833186820F0F4
:102DA000784042EA010318438E4B0833186070479D
:102DB000014600208B4A0832106820F003000843C7
:102DC0001060704787480830006800F00C007047BA
:102DD00001460020834A0832106820F0F0000843C2
:102DE00010607047014600207E4A0832106820F4C7
:102DF000E05008431060704701460020794A0832CD
:102E0000106820F4604040EAC10010607047F0B5DF
:102E1000002100220024022500260223714F0837DA
:102E20003F6807F00C0121B1042905D0082937D1EA
:102E300005E0724F076036E0714F076033E0694F7D
:102E40003F1D3F68C7F38056664F3F1D3F6807F040
:102E50003F036EB16A4FB7FBF3F7DFF888C10CF19F
:102E6000040CDCF800C0CCF3881C07FB0CF40CE06D
:102E7000624FB7FBF3F7DFF86CC10CF1040CDCF820
:102E800000C0CCF3881C07FB0CF4564F3F1D3F6875
:102E9000C7F301477F1C7D00B4FBF5F7076002E034
:102EA000564F076000BF00BF4E4F08373F6807F01E
:102EB000F0010909534F7A5C0768D7404760494FD2
:102EC00008373F6807F4E051890A4E4F7A5C47683B
:102ED000D7408760434F08373F6807F46041490B8C
:102EE000484F7A5C4768D740C760F0BD002100F4C6
:102EF0004072B2F5407F0AD13A4A0832116821F493
:102F0000F811414A02401143364A08321160354AED
:102F100070321268C0F30B031A43324B70331A60DD
:102F20007047354944390860704733494039086073
:102F3000704736490860704701460020294A8C32A4
:102F4000106820F01F004A1E1043264A8C32106081
:102F5000704701460020234A8C32106820F4F85054
:102F60004A1E40EA02201F4A8C3210607047014618
:102F700000201C4A8C32106820F440100843106076
:102F8000704701460020174A8C32106820F4400038
:102F900008431060704701460020124A8C321068C6
:102FA00020F44030084310607047194908607047AA
:102FB00039B10C4A3032126802430A4B30331A607E
:102FC00006E0084A303212688243064B30331A60FA
:102FD0007047F9B1034A343212680243014B34336B
:102FE0001A601CE000380240FFFFF6EA10300024AF
:102FF0000030002000004742800E47420024F400C9
:1030000000127A00C1000020FFFCFF0F5C01474264
:10301000E01147428F4A126882438E4B1A60704714
:1030200039B18C4A121D126802438A4B1B1D1A606B
:1030300006E0884A121D12688243864B1B1D1A60E7
:10304000704739B1834A0C3212680243814B0C330A
:103050001A6006E07F4A0C32126882437D4B0C33C3
:103060001A60704739B17B4A103212680243794BBB
:1030700010331A6006E0774A103212688243754BAB
:1030800010331A60704739B1724A243A1268024309
:10309000704B243B1A6006E06E4A243A1268824361
:1030A0006C4B243B1A60704739B16A4A203A126867
:1030B0000243684B203B1A6006E0664A203A1268D9
:1030C0008243644B203B1A60704739B1614A1C3A15
:1030D000126802435F4B1C3B1A6006E05D4A1C3AD3
:1030E000126882435B4B1C3B1A60704739B1594AE6
:1030F000143A12680243574B143B1A6006E0554AD3
:10310000143A12688243534B143B1A60704739B12A
:10311000504A103A126802434E4B103B1A6006E0C8
:103120004C4A103A126882434A4B103B1A6070476F
:1031300039B1484A1C3212680243464B1C331A60AC
:1031400006E0444A1C3212688243424B1C331A6028
:10315000704739B13F4A2032126802433D4B203359
:103160001A6006E03B4A203212688243394B203312
:103170001A60704739B1374A243212680243354B1E
:1031800024331A6006E0334A243212688243314BFA
:1031900024331A60704739B12E4A2C321268024328
:1031A0002C4B2C331A6006E02A4A2C3212688243D8
:1031B000284B2C331A60704739B1264A30321268D6
:1031C0000243244B30331A6006E0224A3032126840
:1031D0008243204B30331A607047012808D11D49C3
:1031E0003C31096841F008011A4A3C32116007E09D
:1031F00018493C31096821F00801164A3C32116037
:10320000704739B1134A273A12780243114B273BD2
:103210001A7006E00F4A273A127882430D4B273B7B
:103220001A7070470B484030006840F080700949C0
:1032300040310860704701460020064A283A12686B
:103240000A400AB1012000E00020704701492639F8
:103250000870704734380240016821F001010160B4
:103260000021016041608160C160016121214161F3
:10327000DB49884204D13D21D94A103A91608CE063
:10328000D7491831884205D14FF47461D44A103AB5
:10329000916082E0D2493031884205D14FF47411F7
:1032A000CF4A103A916078E0CD494831884205D143
:1032B0004FF07461CA4A103A91606EE0C8496031BB
:1032C000884204D1C749C64A103AD16065E0C44972
:1032D0007831884204D1C449C14A103AD1605CE0D7
:1032E000BF499031884204D1C049BD4A103AD160EB
:1032F00053E0BB49A831884205D14FF03D51B84A4F
:10330000103AD16049E0BA49884204D13D21B84A17
:10331000083A116041E0B6491831884205D14FF4AE
:103320007461B34A083A116037E0B14930318842DC
:1033300005D14FF47411AE4A083A11602DE0AC4942
:103340004831884205D14FF07461A94A083A1160AA
:1033500023E0A7496031884204D1A249A44A121F40
:1033600011601AE0A2497831884204D19E49A04AEE
:10337000121F116011E09E499031884204D19B498F
:103380009B4A121F116008E09949A831884204D174
:103390004FF03D51964A121F1160704710B5002240
:1033A0000268944B1A40CC680B6823434C69234352
:1033B0008C692343CC6923430C6A23434C6A23431F
:1033C0008C6A23434C6B23438C6B23431A43026068
:1033D000426922F00702D1E90B3423431A434261C8
:1033E0000B6943604B6883608B68C36010BD00212C
:1033F000016041608160C160016141618161C161C1
:10340000016241628162C16201634163816370470D
:1034100021B1026842F00102026003E0026822F07A
:1034200001020260704721B1026842F4004202606A
:1034300003E0026822F400420260704721B1026892
:1034400042F02002026003E0026822F020020260E3
:103450007047416070470146486880B2704722B1AA
:10346000036843F40023036003E0036823F40023AC
:1034700003600161704721B1026842F4802202605A
:1034800003E0026822F48022026070470AB1016101
:1034900000E0C1607047014600200A6802F4002283
:1034A0000AB1012000E000207047014600200A68B0
:1034B00002F001020AB1012000E00020704701463D
:1034C00000204A6902F03800704730B503460A46CA
:1034D00000200024464DAB4202D24149103901E0A0
:1034E0004349103902F000550DB14C6800E00C68FA
:1034F000414D2C4004EA02050DB1012000E00020FE
:1035000030BD02463A4B9A4202D23548103801E0AB
:103510003748103801F000531BB1374B0B40C360E4
:1035200002E0354B0B408360704710B501F080031B
:103530004BB122B1436943F08003436103E0436927
:1035400023F08003436180290BD02AB1036801F086
:103550001E042343036004E0036801F01E04A34338
:10356000036010BD70B50246002000240025204EE7
:10357000B24202D21A4B103B01E01D4B103B1F4ED2
:103580000E4036B11E2606EAD124166806EA040566
:1035900002E0566906F0800501F000560EB15C6845
:1035A00000E01C68144E344004EA010616B10DB167
:1035B000012000E0002070BD02460D4B9A4202D26D
:1035C0000748103801E00A48103801F000531BB1D9
:1035D000094B0B40C36002E0074B0B408360704710
:1035E000106002403D000020400F002000003D2000
:1035F000106402403F801CF07D0F7D0F3C0F3C0F9C
:10360000704700000FB4044910B503AA029800F0F7
:103610005BFB10BC5DF814FB5800002070B504463D
:1036200085690068C10601D5302600E02026C00764
:1036300007D070BDD4E9012130469047206A401C74
:1036400020626D1EF6D570BD70B5044685690078A0
:10365000C00707D170BDD4E9012120209047206A1E
:10366000401C20626D1EF6D570BD00002DE9F041B2
:103670000646002410687529314616A510D0AFF310
:103680000080002802DA404213A507E031688A076B
:1036900001D512A502E0490704D511A5012401E0D6
:1036A000AFF3008000210A2206F1240709E0B0FBF5
:1036B000F2FCB0FBF2F302FB1C00303078541846E9
:1036C000491C0028F3D123462A463046BDE8F04184
:1036D00000F093B8000000002D0000002B00000057
:1036E000200000002DE9F0474FF0000A894604460B
:1036F000C0F820A02046E1688847002876D0252819
:1037000006D0D4E901219047206A401C2062F1E7ED
:10371000E168204600258847C4F81CA0064600271B
:10372000C4F818A02A2E09D0304601F036F838B374
:1037300004EB8708303EC8F8186019E059F8041BFC
:10374000204604EB87029161E1688847012F064615
:1037500018D1E069002820DA25F020051DE0D8F80E
:10376000180000EB800006EB40003038C8F8180065
:103770002046E1688847064601F00FF80028EED1A0
:10378000012F0AD02E2E08D12046E16888477F1CE1
:103790000646022F45F02005C4DBA069002803DAA5
:1037A000404245F00105A061E80701D025F0100571
:1037B000B6B1A6F14100192802D8203645F40065BB
:1037C0004A463146204625604D46FCF717FD58B164
:1037D000012806D0ED1D25F0070000F1080989E752
:1037E00004E005F1040985E730468AE7206ABDE870
:1037F000F08770477047704770472DE9F0470D46D6
:1038000099469246044600F124080168880604D5CA
:10381000E06921F01001216000E00120A84201DDF3
:10382000471B00E00027A1697A1902EB0900081A7A
:10383000A0612078C00602D42046FFF7EFFE0026E4
:1038400008E0D4E901211AF806009047206A401CDC
:10385000761C20624E45F4DB2078C0060AD520464F
:10386000FFF7DCFE06E0D4E9012130209047206A12
:10387000401C2062381EA7F10107F4DC07E0D4E900
:10388000012118F805009047206A401C2062281E7C
:10389000A5F10105F3DC2046FFF7D6FE20780006EF
:1038A00002D50220BDE8F0870120FBE770472DE933
:1038B000FF4F0C461E464FF0FF378BB0D2E9000198
:1038C000DDF860800A908A46C1F30A5505B93D4685
:1038D000002108464FF00000BAF1000F00F440004C
:1038E00005DA00EB80004FF4400101EA50004FEA96
:1038F0009059B9F1010F00DDB9460A9850EA4A0023
:103900000ED044F61050A5F2FF3545432F14B8F100
:10391000000F1ED07542291E1EDDC9F100021CE0F9
:10392000B8F1010F4FF0000001D0302103E0F24365
:1039300005E02154401CB042FBDB30460022002150
:1039400021540B99C1F80880C1E900200FB0BDE8EF
:10395000F08FBD1B6D1CDEE74A4600DA694206A8FF
:1039600000F066FA06AB93E8070003AB83E80700B4
:1039700050460A9900F03EFB8DE80700A0F5005084
:103980001F3800900398002D09DD42F21F014A46BE
:10399000084403A90390684600F09DFD08E0A0F5E7
:1039A00000504A461F3803A90390684600F0A7FD5F
:1039B0008DE807000004000C03D04FF0FF304108F1
:1039C00000E01046B8F1000F03D000220092154627
:1039D0001EE0751E05D400F08DF9303262556D1E63
:1039E000F9D5B3460122084302D000227F1C04E02F
:1039F0002078302801D100227F1E002A099786D026
:103A00001DE0112D07DA00F075F9303262556D1C9A
:103A100050EA0102F5D1084302D00098C8B10EE087
:103A20000021681E05E0235C625C63542254401E42
:103A3000491C8142F7DBAB46A81B401E09900020C1
:103A400004F80B000B98099AC0F80880C0E9002B15
:103A50007CE711264FF0000859E72DE9F04F884622
:103A60000446D21D22F0070191B0D1E90001CDE951
:103A70000A0100F07AFE02460B98C00F01D02D20FB
:103A800007E02068810701D52B2002E0202101EA10
:103A9000C000032A099001D0072A05DB03464146EE
:103AA000204600F085F90BE12078800601D5E06919
:103AB00000E00620B8F1650F814606D0B8F1660F28
:103AC00018D0B8F1670F70D131E00020B9F1110FB3
:103AD000009001DB112301E009F101030AAA01A909
:103AE0000CA8FFF7E4FEDDE90C70002609F10105E2
:103AF000834647E001204B4600904FF000470AAA5A
:103B000001A90CA8FFF7D3FEDDE90DB00C995D46C5
:103B1000002610B909F101000D18B9EB050003D416
:103B2000C0F1FF3609F10105A5EB09002BE0B9F161
:103B3000010F01DA4FF001090020B9F1110F0090D7
:103B4000484601DD112300E003460AAA01A90CA89A
:103B5000FFF7ADFEDDE90C704D4600268346207868
:103B600000070AD4AB4500DA5D4601A8012D04DD4B
:103B7000411911F8011C302907D04F4502DA17F11D
:103B8000040F04DA012082460FE06D1EEEE7002FDD
:103B900002DCED1B3E4403E0781CA84200DD7D1CE6
:103BA000B81B00F1010A4FF000472078000703D44A
:103BB000AA4501DB4FF0FF3A0021B7F1004F0DF1AC
:103BC00043088DF8431024D002202B23002F01DA64
:103BD0007F422D230A21021EA0F1010000DC5FB10B
:103BE00097FBF1FC97FBF1F201FB1C7C17460CF1F3
:103BF000300C08F801CDEEE7A8F101000370218830
:103C0000090501D5452100E06521A0F1010800F872
:103C1000011C09980FA9A1EB0807FF1D00B10120A5
:103C2000411901EBEA70A1693844081A401EA061ED
:103C30002078C00602D42046FFF7F0FC099828B18E
:103C4000D4E901219047206A401C20622078C006F8
:103C500022D52046FFF7E2FC1EE0002E04DBB34530
:103C600002DD01A8805D00E03020D4E90121904709
:103C7000206A401C2062761CAAF101005FEA000A5B
:103C80000AD100F033F8C0680168405CD4E9012132
:103C90009047206A401C2062281EA5F10105DCDC4B
:103CA00007E0D4E9012118F8010B9047206A401C75
:103CB0002062381EA7F10107F3DC2046FFF7C4FCA1
:103CC000032011B043E60000074B70B50D467B445E
:103CD00000F05BF80446284600F018F910B14FF0E8
:103CE000FF3070BD204670BD57D2FFFF00487047BF
:103CF0008001002030B5B0F10A024FEA900E71F158
:103D000000034EEA817EB0EB0E0061EB91014FEAB9
:103D1000101E4EEA017E10EB0E0041EB11114FEA2E
:103D2000102E4EEA016E10EB0E0041EB11214FEA0E
:103D3000104E4EEA014E10EB0E0041EB11414018BF
:103D400041F100014FEAD00040EA41704FEAD10151
:103D500010EB80054FEA810444EA907444EB0104BF
:103D60006D1944EB0404521BA3414FF0000348BFFC
:103D70000A3200D530BD401C41F1000130BD0000C9
:103D800001694A1C02610878704700B58FB0CDE91F
:103D900001310021059105497944CDE9031011460F
:103DA0006846FFF79FFC0FB000BD0000E5FFFFFF76
:103DB0002DE9F0411F46044603260168072A01F455
:103DC000006004DB08B116A505E016A503E008B104
:103DD00015A500E015A521F010002060A069C01E07
:103DE000A0610FB1401EA0612046FFF717FC4FB144
:103DF000D4E9012138469047206A401C2062C01C4B
:103E0000206206E0206AFAE7D4E9012115F8010BE7
:103E10009047761EF8D22046FFF716FCBDE8F081E9
:103E20004E414E006E616E00494E4600696E66005E
:103E30002DE9F047814616468AB0334878440DC8CC
:103E40008DE80D0030487844801C03AC0DC884E830
:103E50000D0041F69B300844372190FBF1F290FBB6
:103E6000F1F5A5F1800501FB12041B3C02D564426B
:103E7000012000E00020DFF890A080460027FA44EF
:103E8000AAF1BE0A0DE0E00709D03246684607EB0A
:103E900047010AEB810100F032FB8DE80700641056
:103EA0007F1C002CEFD1184F7F44AC3F18E0E8078F
:103EB00014D007EB04100DF1180A90E80E008AE800
:103EC0000E00C068F04201D198190890324606A948
:103ED00003A800F014FB03AB83E807006D10641C1B
:103EE000002DE4D132466946B8F1000F03A802D094
:103EF00000F0F1FA01E000F002FBC9E90001C9F8A5
:103F000008200AB0BDE8F0877C120000007B00F0BA
:103F10008000704700487047600100207546FFF739
:103F2000F9FFAE4605006946534620F00700854676
:103F300018B020B5FDF71AFCBDE820404FF0000690
:103F40004FF000074FF000084FF0000B21F0070181
:103F5000AC46ACE8C009ACE8C009ACE8C009ACE8C4
:103F6000C0098D4670470446AFF300802046FCF739
:103F700064F900004FF0013C50F8042B51F8043B69
:103F80009A4221D1A2EB0C03934313EACC1317D12D
:103F900050F8042B51F8043B9A4215D1A2EB0C03C4
:103FA000934313EACC130BD150F8042B51F8043B84
:103FB0009A4209D1A2EB0C03934313EACC13DBD052
:103FC0004FF00000704700BFD01A01BAB1FA81F17A
:103FD00001F0180122FA01F0CB40C1F12001DBB25F
:103FE000C0B2C01A2CFA01F3D11A914311EAC311DD
:103FF000E6D170475FEA400C08BF91F0000F4FEA2E
:104000008C234FEAC12243EA51514FEA1C5018BF9A
:1040100000F5F0404FEA300018BF41F000415FEA80
:104020006C5C00F02980BCF1FF3F08BF40F080408D
:104030007047130C06BF12044FF0100C4FF0000C29
:10404000130E04BF12020CF1080C130F04BF12016F
:104050000CF1040C930F04BF92000CF1020CD30F6F
:1040600004BF52000CF1010C11464FF00002A0F108
:104070001F00A0EB0C00704711F0004F08BF704705
:1040800031F000413FF4D5AF0B0C06BF09044FF0EF
:10409000100C4FF0000C0B0E04BF09020CF1080CC1
:1040A0000B0F04BF09010CF1040C8B0F04BF890036
:1040B0000CF1020CCB0F04BF49000CF1010CCCF148
:1040C0002003A0EB0C0022FA03F302FA0CF241EAFF
:1040D000030100F10100704720F07F4C80EA0300EB
:1040E00023F07F47ACEB070303F57C5300F000405F
:1040F00003F1FF032DE980494FEA154B09B44FEA5C
:10410000144325EA0B4E24EA03480FF2042606EB7B
:10411000132749083E785FEA320203FB0667C7F5BA
:10412000000707FB06F64FEA54374FEAD64606F17A
:10413000020607FB066CCCF1005C4FEA1C472CEA38
:10414000074C07FB06F40CFB06F504EB15464FEA9B
:10415000961634BF00204FF000404FEAD13706FBDF
:1041600007FC4FEA1C4C0CFB0BF7D21B03FB0CF7B4
:1041700061EB07010CFB0EF7B0EB074072EB174247
:104180000CFB08F734BFA2EB0742B2EB074261EB2E
:1041900017414FEA0C444FEA910706FB07FC4FEA30
:1041A0001C4C0CFB0BF7B0EBC74072EB573203FB18
:1041B0000CF734BFA2EBC742B2EBC74261EB5731F9
:1041C0000CFB0EF7B0EBC70072EB57720CFB08F755
:1041D00034BFA2EBC702B2EBC70261EB5771039F7A
:1041E0004FEA816141EA921104EBCC044FEAD137E6
:1041F0004FEA826206FB07FC42EA90124FEA8060B7
:104200004FEA1C4C0CFB0BF7D21B03FB0CF761EBCA
:1042100007010CFB0EF7B0EB074072EB17420CFBEB
:1042200008F734BFA2EB0742B2EB074261EB17413C
:104230004FEA8C554FEA910704EB9C2406FB07FCE0
:104240004FEA1C4C0CFB0BF7B0EBC74072EB57323C
:1042500003FB0CF734BFA2EBC742B2EBC74261EBE2
:1042600057310CFB0EF7B0EBC70072EB57720CFB2B
:1042700008F734BFA2EBC702B2EBC70261EB57717C
:1042800015EB4C254FEA816141EA92114FEA8262B7
:104290004FEAD13742EA901206FB07FC44F10004D2
:1042A0004FEA80604FEA1C4C0CFB0BF7D21B03FB60
:1042B0000CF761EB07010CFB0EF7B0EB074072EB5C
:1042C00017420CFB08F734BFA2EB0742B2EB0742E0
:1042D00061EB174115EB1C154FEA813141EA924120
:1042E0004FEA823242EA90424FEA80304FEA0C763F
:1042F00044F1000448EA03434EEA0B484FF0000E35
:10430000B2EB080C71EB030724BF624639464EEB53
:104310000E0E4FF0000B0018524149414BEB0B0BB6
:10432000B2EB080C71EB03077BF1000B24BF624674
:1043300039464EEB0E0E4FF0000B0018524149412A
:104340004BEB0B0BB2EB080C71EB03077BF1000B93
:1043500024BF624639464EEB0E0E51EA020718BFE3
:1043600046F0010616EB0E7655F1000254F10001FD
:1043700003D5BDE88901BDE80088BDE88901BDE835
:104380000048B619524141EB0101A3F10103704706
:1043900080807F7E7D7C7B7A797877767675747382
:1043A000727171706F6E6E6D6C6C6B6A6A69686841
:1043B000676666656464636362616160605F5F5ED7
:1043C0005E5D5D5C5C5B5B5A5A595958585757564D
:1043D00056555555545453535252525151505050B2
:1043E0004F4F4F4E4E4D4D4D4C4C4C4B4B4B4A4A04
:1043F0004A49494948484847474747464646454548
:104400004544444444434343434242424241414180
:10441000002B26D4770021D01CB54FEA370703B410
:104420004FF010004FF010014FF000000FBCBDE83E
:1044300010400BF1010BBBF1010F08BF5FEA17073A
:1044400022BF12F1010211F101014FF0004143F1CD
:10445000000300F0004043EA00007047F9D357081A
:10446000DAE746EA064613F1400F4FEA16461FDD2B
:1044700013F1200FDFBF16430A46002120335B42B1
:10448000C8D0C3F1200746EA064602FA07F74FEA0A
:10449000164646EA0706C3F1200722FA03F201FA9C
:1044A00007F721FA03F14FF0000342EA0702B1E7F0
:1044B00046EA020646EA06464FEA164646EA01067C
:1044C000BCBF46EA0646360C4FF000034FF0000230
:1044D0004FF000019EE72DE9C048934630B491E8C3
:1044E000380007C831EA400C48BF34EA430C03D512
:1044F000FFF7F2FDFFF78CFFF0BCBDE800882DE967
:10450000C048934630B491E8380007C810F0804F97
:1045100008BF13F0804F03D100F005F8FFF778FFD4
:10452000F0BCBDE8008820F07F4780EA030023F05C
:104530007F4C07EB0C03A3F57C5300F00040A3F184
:10454000FE0392F0000F00F0B38095F0000F00F032
:1045500077802DE901494FEA11404FEA144621EADC
:10456000004800FB06FC24EA064708FB06F607FBAA
:1045700008F800FB07F718EB06484CEB164C4FEA1F
:10458000124B18EB07484FEA15464CEB174022EA4E
:104590000B4E0BFB06FC25EA06470EFB06F607FB57
:1045A0000EFE0BFB07F71EEB064E4CEB164C4FF0C6
:1045B00000061EEB074E4CEB174B18EB0B0840F1B7
:1045C000000018EB0E0B58EB000840F100008F1AAA
:1045D0004FF000013CBFC943661B14BFB5EB040C90
:1045E00000213CBFC943F61B4FEA17444EEA8E0E2A
:1045F00027EA04454FEA1C4704FB07622CEA074CF4
:1046000005FB07F70CFB05F604FB0CFC16EB074655
:1046100042EB174216EB0C4642EB1C421BEB060624
:1046200058EB0202414146EA9E0601D5BDE80189E8
:10463000B619524141EB0101A3F10103BDE8018923
:104640004FEA14454FEA114724EA054621EA074C90
:1046500005FB07F406FB07F70CFB06F105FB0CFC5A
:1046600011EB074144EB17444FEA124711EB0C41A1
:1046700044EB1C4422EA074C05FB07F206FB07F754
:104680000CFB06F605FB0CFC16EB074642EB17424B
:1046900016EB0C4642EB1C456A1854F1000148BF6A
:1046A0007047B619524141EB0101A3F10103704774
:1046B00095F0000F37D04FEA11424FEA144721EA34
:1046C000024624EA074C02FB07F106FB07F70CFB46
:1046D00006F402FB0CFC14EB074441EB17414FEAD4
:1046E000154714EB0C4441EB1C4125EA074C02FB37
:1046F00007F506FB07F70CFB06F602FB0CFC16EBB6
:10470000074645EB174516EB0C4645EB1C421219C4
:1047100051F1000148BF7047B619524141EB010108
:10472000A3F1010370474FEA14454FEA114724EA09
:10473000054621EA074C05FB07F106FB07F70CFBD2
:1047400006F24FF0000605FB0CFC12EB074241EBB2
:10475000174112EB0C4251EB1C4148BF70479218B5
:1047600041EB0101A3F10103704703B4019841003B
:10477000009850EAC12018BF04204A0D18BF40F02D
:10478000010040F2FF72B2EB515F08BF40F002003F
:10479000012808BF052002B0704730380A2801D22E
:1047A000012070470020704710B500290AD0087812
:1047B000002807D005487844FFF7DCFB002801D02B
:1047C000002010BD0248784410BD00003E090000E2
:1047D0003609000010B591EA030F48BF83F000438B
:1047E00000F14483841A71EB030C05D2121943EBD8
:1047F0000C03001B61EB0C01DFF824E14FEA1154BC
:10480000A4EB135C1EEA430F18BF9EEA445F73D00B
:1048100023EA0E03DCF1200E21EA045143F4801355
:1048200032D322FA0CFE10EB0E0023FA0CFE41EB01
:104830000E01CCF1200E03FA0EFE10EB0E0051F12A
:104840000001B1F5801FCCF1200E32D201EB0451F2
:1048500012FA0EF2BDE8104058BF7047401C38BF36
:104860005FEA420218BF7047002814BF20F0010021
:1048700041F100014FEA410313F5001F38BF7047B3
:10488000A1F1C04100F0E4BA012A43EB0302ACF10C
:10489000200CDCF11F0E32BF4FF0000E23FA0CF398
:1048A00010EB030041EB0451B4EB115FD0D0A1EB4E
:1048B000045101F5801149085FEA300001EB045111
:1048C0000ED350F1000038BF12FA0EFE08D1BDE839
:1048D0001040C9E7401C38BF5FEA4202CAD1C3E7B3
:1048E000BDE810404FEA410313F5001F38BF704781
:1048F000A1F1C04100F0ACBA9EEA445F08D011EAD1
:104900005E0FBDE8104004BF01F000410020704779
:10491000BDE8104070B500F04DFA00BF64FBBE3E2C
:104920000000E0FF2DE9C04130B4DFF8A0C23CEA4E
:10493000111418BF3CEA131400F0EC8081EA03055F
:104940001CEA111444EAD57418BF1CEA131500F0D0
:10495000C780A4EB05044FF0004545EAC12145EAB4
:10496000C32341EA505143EA525304F17F74994200
:1049700004F500344FEAC0204FEAC22208BF90423B
:1049800000F09C804FEA13650FF24016765D4FEA07
:10499000134506FB05F7C7F1807706FB07F74FEADB
:1049A000D737A7FB03687642C8F58038A7FB06CE49
:1049B00038BFA8F1010807FB08E64FF0000EA6FB80
:1049C000028CE6FB03CEDCF1000CCEF1004E38BFCA
:1049D000AEF1010EA6FB0C584FF000074FF000059A
:1049E000E6FB0E87A1FB08C6A0FB07CE16EB0E0662
:1049F00045F10005E1FB076515F1E04E7EBFA4F52A
:104A000080345FEA46066D4116F1800745F10005E6
:104A10004FEA17274FEA066647EA0567A6F1DE4622
:104A2000B6F1805F4FEA15251FD9384624F0010CF6
:104A300005EBC471BCF1FE6F01EB0C1102D8F0BCA8
:104A4000BDE8008124425CBF01F5801E9EEAC47F60
:104A500002D4F0BCBDE80081244238D4F0BCA1F1FE
:104A6000C041BDE8004100F0F3B94FEAD22242EA6A
:104A700043524FEAD323A7FB02864FEAD02040EAF5
:104A8000415007FB03661EEA0E0F4FEAD12105FBDA
:104A9000026658BFA6EB0056B6EB00564FEA520E20
:104AA0004EEAC37E18EB0E0E56EB530EBDD518EB37
:104AB00002085E417F1C55F10005B6E74FF48015F2
:104AC0004FF000074FF000064FF00008ADE7F0BCD4
:104AD0004FF0000001F1C04101F00041BDE800814C
:104AE00011EA0C1F0CEA131500D00CE013EA0C1F9E
:104AF00000F025804FF00000F0BC81EA030101F0D6
:104B00000041BDE80081F0BCBDE8004181EA03013D
:104B100000F09EB9F0BCBDE8004170B500F04AF964
:104B2000097EFC3E00F007B881EA03014FF0000067
:104B300001F00041704781EA030100F089B9F0BC3F
:104B4000BDE800414FF0000021497047FFFDFBF92F
:104B5000F7F5F4F2F0EEEDEBE9E8E6E4E3E1E0DEB0
:104B6000DDDBDAD8D7D5D4D3D1D0CFCDCCCBCAC822
:104B7000C7C6C5C4C2C1C0BFBEBDBCBBBAB9B8B749
:104B8000B6B5B4B3B2B1B0AFAEADACABAAA9A8A83C
:104B9000A7A6A5A4A3A3A2A1A09F9F9E9D9C9C9B0A
:104BA0009A999998979796959594939392919190B5
:104BB0008F8F8E8E8D8C8C8B8B8A89898888878746
:104BC0008685858484838382828181800000FF07BB
:104BD0000000F87F4FEA41034FEA5353A3F5806387
:104BE000D3F11E03C8BFD3F1210C0CDD4FF00042FE
:104BF00042EAC12242EA505232FA03FC8CEAE17CDA
:104C0000ACEBE1707047102BC4BF0020704703F578
:104C1000787CBCF1FF3F04D06FF0004282EA2100B3
:104C2000704770B500F0C6F84992248000207047A4
:104C3000F2E710F0004248BF4042B0FA80F310FAA9
:104C400003F10AD0C3F11D0303F580634FEA41501D
:104C500002EB035202EBD12170474FF00000704786
:104C6000DFF848C170B51CEA111E1EBF1CEA1315FF
:104C70009EEA0C0F95EA0C0F00F06F8081EA0304A6
:104C800023EA4C134EEAD47E21EA4C1141F4801100
:104C900043F48013AE44A1FB024CA0FB0365AEF1CC
:104CA0007F7E361955EB0C05A1FB034C4CF100033C
:104CB000A0FB021C16EB0C06654153F100030942F0
:104CC00018BF46F0010613F4007F0BD14FEA033101
:104CD0004FEA0530340341EA155140EA16506FF0AF
:104CE00003020AE04FEAC3214FEAC520F40241EA79
:104CF000555140EA56506FF0020202EB2E4201EB92
:104D0000025585EACE710AD05FEA440C18BF24F040
:104D1000004450F1000041F1000120EAD47040F25B
:104D2000FE7C624500D270BDA84214BF4FF08044A3
:104D30004FF04044002E08BF0024BEF1806FA8BF92
:104D4000A1F1C041BDE8704080F282804FF00000C8
:104D500001F1C04101F0004170479EEA0C0F0CEADE
:104D6000131518BF95EA0C0F06D04FF0000081EA2A
:104D7000030E0EF0004170BD00F01CF88900013EEA
:104D800000F007B800F009B84FEA430C5FEA5C5C3A
:104D900008D081EA030100F05BB84FEA410C5FEAFA
:104DA0005C5CF6D14FF00000014970470000FF073E
:104DB0000000F87F0EF1020E2EF0030E5EF8046B79
:104DC000364205D4012A43EB030515F5001F12D81E
:104DD000012841EB010C1CF5001F0CD80ED14FEA45
:104DE000D17C15F5001F0CEB4C0C0CF1020C08BF2C
:104DF0004CEBD37C04E04FF0080C01E04FEAD37C8D
:104E00000CEB4C0526FA05F606F00706B6F1040C85
:104E100006D20EEB860CBDE870404CF0010C6047EA
:104E2000DFE80CF0090B02024FF000414FF00000E8
:104E3000A1F5002170BD19461046012851EB01046F
:104E400018BFD4F5001484BF002001F0004170BDEC
:104E50000808A0F500114FEA3101704710B591EA3A
:104E6000030F48BF83F000433FF5BCAC841A71EBDD
:104E7000030C07D212198CF0004C43EB0C03001BFF
:104E800061EB0C01DFF8A4E14FEA1154A4EB135CD1
:104E90001EEA430F18BF9EEA445F00F0B08023EA89
:104EA0006E03524221EA0451C3EB6E0338BF5B1E0E
:104EB000DCF1200E25D322FA0CFE10EB0E0043FA93
:104EC0000CFE41EB0E01CCF1200E03FA0EFE10EBAE
:104ED0000E0051F10001CCF1200E29D412FA0EF28D
:104EE00001EB0451BDE8104058BF7047401C1CBF87
:104EF000B2F1004F704700280CBF491C20F00100A0
:104F0000704712EB020E43EB030218BF4FF0010E85
:104F10004EEA4202ACF1200CDCF11E0E54D943FAE9
:104F20000CFE10EB0E0051F1FF31CCF11E0ED5D569
:104F30000EF1010E12FA0EFE404141EB010101EBB0
:104F4000445C5FEA5C5C10D910EBDE7001EB04514D
:104F500038BFBEF1004FBDE8104018BF70470028B1
:104F60000CBF491C20F00100704730D24FEAD42C0E
:104F700011F5001124F400641BD0B1FA81F20B3A50
:104F8000A41AA41ED2F12003914030FA03F319436E
:104F9000904001EBCC71002C01EB0451BDE81040B6
:104FA000A8BF704701F1C0414FF0000001F000417F
:104FB0007047B0FA80F310FA03F100D110BDE41A83
:104FC000173C4805C90AE4E701EB045110BD49103C
:104FD00001EB0451BDE810404FEA300002E04FF011
:104FE000000170474A0008BF0042F8D0B2F5001F28
:104FF00028BF704701F000414FF0000070479EEA63
:10500000445F07D011EA5E0FBDE8104004BF0021E5
:1050100000207047BDE8104070B5FFF7CBFE00BF21
:1050200040DFF63E83F00041104670470000E0FF8D
:105030004FF04070E1EE100A7047FEF70EBD000021
:1050400002400000000000A0000000000540000039
:10505000000000C8000000000C4000000000409C60
:1050600000000000194000000020BCBE000000004D
:1050700034400000BFC91B8E00000004B540000092
:10508000504BCFD06607E2CF010000006C4100001A
:105090003E8251AADFEEA73401000000D942000091
:1050A000DCB5A0E23A301F97FFFFFFFFB4450000D8
:1050B000FD25A0C8E9A3C14FFFFFFFFFFF3F000090
:1050C0000000008000000000FF3F000000000080A2
:1050D000000000001051000800000020D400000073
:1050E000C4010008E4510008D4000020EC060000D0
:1050F000E00100081C00000043000000F8FFFFFF73
:105100000C0000000E0000000F0000002E00000048
:10511000000000000000000000000000000000008F
:10512000000000000000000000000000000000007F
:10513000000000000000000000000000000000006F
:10514000000000000000000000000000000000005F
:10515000007A030A000000000000000001020304BE
:105160000607080900000000000000000000000021
:10517000000000000000000000000000000000002F
:10518000000000000000000000000000000000001F
:10519000000000000000000000000000000000000F
:1051A00000000000000016400000000000000000A9
:1051B000000000000000F03F0000000000000000C0
:1051C00000000000000000000000000000000000DF
:1051D00001000000000102030401020304060708A5
:0451E00009000000C2
:040000050800018965
:00000001FF
